{
    "_format": "hh-sol-artifact-1",
    "contractName": "RockPaperScissors",
    "sourceName": "contracts/RockPaperScissors.sol",
    "abi": [
        {
            "anonymous": false,
            "inputs": [
                {
                    "indexed": true,
                    "internalType": "address",
                    "name": "player",
                    "type": "address"
                },
                {
                    "indexed": false,
                    "internalType": "bytes32",
                    "name": "hashedVote",
                    "type": "bytes32"
                }
            ],
            "name": "Played",
            "type": "event"
        },
        {
            "anonymous": false,
            "inputs": [
                {
                    "indexed": true,
                    "internalType": "address",
                    "name": "player",
                    "type": "address"
                },
                {
                    "indexed": false,
                    "internalType": "string",
                    "name": "vote",
                    "type": "string"
                }
            ],
            "name": "Revealed",
            "type": "event"
        },
        {
            "anonymous": false,
            "inputs": [
                {
                    "indexed": true,
                    "internalType": "address",
                    "name": "player",
                    "type": "address"
                },
                {
                    "indexed": false,
                    "internalType": "uint256",
                    "name": "amount",
                    "type": "uint256"
                }
            ],
            "name": "Withdrawn",
            "type": "event"
        },
        {
            "inputs": [],
            "name": "bet",
            "outputs": [
                {
                    "internalType": "uint256",
                    "name": "",
                    "type": "uint256"
                }
            ],
            "stateMutability": "view",
            "type": "function"
        },
        {
            "inputs": [],
            "name": "commit1",
            "outputs": [
                {
                    "internalType": "bytes32",
                    "name": "",
                    "type": "bytes32"
                }
            ],
            "stateMutability": "view",
            "type": "function"
        },
        {
            "inputs": [],
            "name": "commit2",
            "outputs": [
                {
                    "internalType": "bytes32",
                    "name": "",
                    "type": "bytes32"
                }
            ],
            "stateMutability": "view",
            "type": "function"
        },
        {
            "inputs": [],
            "name": "gameCompleted",
            "outputs": [
                {
                    "internalType": "bool",
                    "name": "",
                    "type": "bool"
                }
            ],
            "stateMutability": "view",
            "type": "function"
        },
        {
            "inputs": [],
            "name": "gameStartTime",
            "outputs": [
                {
                    "internalType": "uint256",
                    "name": "",
                    "type": "uint256"
                }
            ],
            "stateMutability": "view",
            "type": "function"
        },
        {
            "inputs": [],
            "name": "move1",
            "outputs": [
                {
                    "internalType": "string",
                    "name": "",
                    "type": "string"
                }
            ],
            "stateMutability": "view",
            "type": "function"
        },
        {
            "inputs": [],
            "name": "move2",
            "outputs": [
                {
                    "internalType": "string",
                    "name": "",
                    "type": "string"
                }
            ],
            "stateMutability": "view",
            "type": "function"
        },
        {
            "inputs": [
                {
                    "internalType": "address",
                    "name": "",
                    "type": "address"
                }
            ],
            "name": "pendingWithdrawals",
            "outputs": [
                {
                    "internalType": "uint256",
                    "name": "",
                    "type": "uint256"
                }
            ],
            "stateMutability": "view",
            "type": "function"
        },
        {
            "inputs": [
                {
                    "internalType": "bytes32",
                    "name": "_commitment",
                    "type": "bytes32"
                }
            ],
            "name": "play",
            "outputs": [],
            "stateMutability": "payable",
            "type": "function"
        },
        {
            "inputs": [],
            "name": "player1",
            "outputs": [
                {
                    "internalType": "address",
                    "name": "",
                    "type": "address"
                }
            ],
            "stateMutability": "view",
            "type": "function"
        },
        {
            "inputs": [],
            "name": "player2",
            "outputs": [
                {
                    "internalType": "address",
                    "name": "",
                    "type": "address"
                }
            ],
            "stateMutability": "view",
            "type": "function"
        },
        {
            "inputs": [
                {
                    "internalType": "string",
                    "name": "_move",
                    "type": "string"
                },
                {
                    "internalType": "string",
                    "name": "_salt",
                    "type": "string"
                }
            ],
            "name": "reveal",
            "outputs": [],
            "stateMutability": "nonpayable",
            "type": "function"
        },
        {
            "inputs": [],
            "name": "revealTimeout",
            "outputs": [
                {
                    "internalType": "uint256",
                    "name": "",
                    "type": "uint256"
                }
            ],
            "stateMutability": "view",
            "type": "function"
        },
        {
            "inputs": [],
            "name": "revealed1",
            "outputs": [
                {
                    "internalType": "bool",
                    "name": "",
                    "type": "bool"
                }
            ],
            "stateMutability": "view",
            "type": "function"
        },
        {
            "inputs": [],
            "name": "revealed2",
            "outputs": [
                {
                    "internalType": "bool",
                    "name": "",
                    "type": "bool"
                }
            ],
            "stateMutability": "view",
            "type": "function"
        },
        {
            "inputs": [],
            "name": "tie",
            "outputs": [
                {
                    "internalType": "bool",
                    "name": "",
                    "type": "bool"
                }
            ],
            "stateMutability": "view",
            "type": "function"
        },
        {
            "inputs": [],
            "name": "winner",
            "outputs": [
                {
                    "internalType": "address",
                    "name": "",
                    "type": "address"
                }
            ],
            "stateMutability": "view",
            "type": "function"
        },
        {
            "inputs": [],
            "name": "withdraw",
            "outputs": [],
            "stateMutability": "nonpayable",
            "type": "function"
        },
        {
            "stateMutability": "payable",
            "type": "receive"
        }
    ],
    "bytecode": "0x608060405234801561001057600080fd5b50612c6d806100206000396000f3fe60806040526004361061010d5760003560e01c80639f663fb811610095578063d30895e411610064578063d30895e414610323578063d6f5c9391461034e578063dfbf53ae14610379578063f3f43703146103a4578063feac8570146103e157610114565b80639f663fb814610286578063a45801a2146102b1578063c78eb546146102dc578063c7a1865b1461030757610114565b80633ccfd60b116100dc5780633ccfd60b146101c55780634376cb34146101dc5780634d699f001461020757806359a5f12d146102325780635ba1b2c71461025d57610114565b80630252b9951461011957806311610c251461014457806333d85d441461016f578063378b69eb1461019a57610114565b3661011457005b600080fd5b34801561012557600080fd5b5061012e61040c565b60405161013b91906129d7565b60405180910390f35b34801561015057600080fd5b50610159610412565b60405161016691906129d7565b60405180910390f35b34801561017b57600080fd5b50610184610418565b60405161019191906127d5565b60405180910390f35b3480156101a657600080fd5b506101af6104a6565b6040516101bc919061277b565b60405180910390f35b3480156101d157600080fd5b506101da6104b9565b005b3480156101e857600080fd5b506101f1610ac1565b6040516101fe91906129d7565b60405180910390f35b34801561021357600080fd5b5061021c610ac7565b604051610229919061277b565b60405180910390f35b34801561023e57600080fd5b50610247610ada565b6040516102549190612760565b60405180910390f35b34801561026957600080fd5b50610284600480360381019061027f919061219b565b610b00565b005b34801561029257600080fd5b5061029b61112a565b6040516102a89190612796565b60405180910390f35b3480156102bd57600080fd5b506102c6611130565b6040516102d3919061277b565b60405180910390f35b3480156102e857600080fd5b506102f1611143565b6040516102fe91906127d5565b60405180910390f35b610321600480360381019061031c9190612172565b6111d1565b005b34801561032f57600080fd5b5061033861150f565b6040516103459190612760565b60405180910390f35b34801561035a57600080fd5b50610363611533565b604051610370919061277b565b60405180910390f35b34801561038557600080fd5b5061038e611546565b60405161039b9190612760565b60405180910390f35b3480156103b057600080fd5b506103cb60048036038101906103c69190612149565b61156c565b6040516103d891906129d7565b60405180910390f35b3480156103ed57600080fd5b506103f6611584565b6040516104039190612796565b60405180910390f35b60085481565b60025481565b6006805461042590612b68565b80601f016020809104026020016040519081016040528092919081815260200182805461045190612b68565b801561049e5780601f106104735761010080835404028352916020019161049e565b820191906000526020600020905b81548152906001019060200180831161048157829003601f168201915b505050505081565b600560009054906101000a900460ff1681565b600960009054906101000a900460ff161580156105255750600073ffffffffffffffffffffffffffffffffffffffff16600160009054906101000a900473ffffffffffffffffffffffffffffffffffffffff1673ffffffffffffffffffffffffffffffffffffffff1614155b156108025761012c60085461053a9190612a24565b42106107c657600560009054906101000a900460ff1680156105695750600560019054906101000a900460ff16155b156106615760008054906101000a900473ffffffffffffffffffffffffffffffffffffffff16600960016101000a81548173ffffffffffffffffffffffffffffffffffffffff021916908373ffffffffffffffffffffffffffffffffffffffff1602179055506001600960006101000a81548160ff021916908315150217905550600280546105f89190612a7a565b600a60008060009054906101000a900473ffffffffffffffffffffffffffffffffffffffff1673ffffffffffffffffffffffffffffffffffffffff1673ffffffffffffffffffffffffffffffffffffffff168152602001908152602001600020819055506107c1565b600560019054906101000a900460ff16801561068a5750600560009054906101000a900460ff16155b1561078557600160009054906101000a900473ffffffffffffffffffffffffffffffffffffffff16600960016101000a81548173ffffffffffffffffffffffffffffffffffffffff021916908373ffffffffffffffffffffffffffffffffffffffff1602179055506001600960006101000a81548160ff0219169083151502179055506002805461071b9190612a7a565b600a6000600160009054906101000a900473ffffffffffffffffffffffffffffffffffffffff1673ffffffffffffffffffffffffffffffffffffffff1673ffffffffffffffffffffffffffffffffffffffff168152602001908152602001600020819055506107c0565b6040517f08c379a00000000000000000000000000000000000000000000000000000000081526004016107b7906128f7565b60405180910390fd5b5b610801565b6040517f08c379a00000000000000000000000000000000000000000000000000000000081526004016107f890612837565b60405180910390fd5b5b6000600a60003373ffffffffffffffffffffffffffffffffffffffff1673ffffffffffffffffffffffffffffffffffffffff16815260200190815260200160002054905060008111610889576040517f08c379a000000000000000000000000000000000000000000000000000000000815260040161088090612877565b60405180910390fd5b6000600a60003373ffffffffffffffffffffffffffffffffffffffff1673ffffffffffffffffffffffffffffffffffffffff1681526020019081526020016000208190555060003373ffffffffffffffffffffffffffffffffffffffff16826040516108f49061274b565b60006040518083038185875af1925050503d8060008114610931576040519150601f19603f3d011682016040523d82523d6000602084013e610936565b606091505b505090508061097a576040517f08c379a000000000000000000000000000000000000000000000000000000000815260040161097190612857565b60405180910390fd5b3373ffffffffffffffffffffffffffffffffffffffff167f7084f5476618d8e60b11ef0d7d3f06914655adb8793e28ff7f018d4c76d505d5836040516109c091906129d7565b60405180910390a2600960009054906101000a900460ff1615610abd576000600a60008060009054906101000a900473ffffffffffffffffffffffffffffffffffffffff1673ffffffffffffffffffffffffffffffffffffffff1673ffffffffffffffffffffffffffffffffffffffff16815260200190815260200160002054148015610aae57506000600a6000600160009054906101000a900473ffffffffffffffffffffffffffffffffffffffff1673ffffffffffffffffffffffffffffffffffffffff1673ffffffffffffffffffffffffffffffffffffffff16815260200190815260200160002054145b15610abc57610abb61158a565b5b5b5050565b61012c81565b600960009054906101000a900460ff1681565b600160009054906101000a900473ffffffffffffffffffffffffffffffffffffffff1681565b60008054906101000a900473ffffffffffffffffffffffffffffffffffffffff1673ffffffffffffffffffffffffffffffffffffffff163373ffffffffffffffffffffffffffffffffffffffff161480610ba75750600160009054906101000a900473ffffffffffffffffffffffffffffffffffffffff1673ffffffffffffffffffffffffffffffffffffffff163373ffffffffffffffffffffffffffffffffffffffff16145b610be6576040517f08c379a0000000000000000000000000000000000000000000000000000000008152600401610bdd90612817565b60405180910390fd5b600084848080601f016020809104026020016040519081016040528093929190818152602001838380828437600081840152601f19601f8201169050808301925050505050505090506001815114610c73576040517f08c379a0000000000000000000000000000000000000000000000000000000008152600401610c6a90612897565b60405180910390fd5b600081600081518110610caf577f4e487b7100000000000000000000000000000000000000000000000000000000600052603260045260246000fd5b602001015160f81c60f81b90507f52000000000000000000000000000000000000000000000000000000000000007effffffffffffffffffffffffffffffffffffffffffffffffffffffffffffff1916817effffffffffffffffffffffffffffffffffffffffffffffffffffffffffffff19161480610d9157507f50000000000000000000000000000000000000000000000000000000000000007effffffffffffffffffffffffffffffffffffffffffffffffffffffffffffff1916817effffffffffffffffffffffffffffffffffffffffffffffffffffffffffffff1916145b80610dff57507f53000000000000000000000000000000000000000000000000000000000000007effffffffffffffffffffffffffffffffffffffffffffffffffffffffffffff1916817effffffffffffffffffffffffffffffffffffffffffffffffffffffffffffff1916145b610e3e576040517f08c379a0000000000000000000000000000000000000000000000000000000008152600401610e35906129b7565b60405180910390fd5b600086868686604051602001610e579493929190612723565b60405160208183030381529060405280519060200120905060008054906101000a900473ffffffffffffffffffffffffffffffffffffffff1673ffffffffffffffffffffffffffffffffffffffff163373ffffffffffffffffffffffffffffffffffffffff161415610fd957600560009054906101000a900460ff1615610f13576040517f08c379a0000000000000000000000000000000000000000000000000000000008152600401610f0a906127f7565b60405180910390fd5b6003548114610f57576040517f08c379a0000000000000000000000000000000000000000000000000000000008152600401610f4e90612917565b60405180910390fd5b6001600560006101000a81548160ff021916908315150217905550868660069190610f83929190611fac565b503373ffffffffffffffffffffffffffffffffffffffff167fee22ca58eb93549cf1b11737946f98a22ff5191a499f5839f6a9e7eb40dcb1528888604051610fcc9291906127b1565b60405180910390a26110eb565b600560019054906101000a900460ff1615611029576040517f08c379a000000000000000000000000000000000000000000000000000000000815260040161102090612977565b60405180910390fd5b600454811461106d576040517f08c379a000000000000000000000000000000000000000000000000000000000815260040161106490612957565b60405180910390fd5b6001600560016101000a81548160ff021916908315150217905550868660079190611099929190611fac565b503373ffffffffffffffffffffffffffffffffffffffff167fee22ca58eb93549cf1b11737946f98a22ff5191a499f5839f6a9e7eb40dcb15288886040516110e29291906127b1565b60405180910390a25b600560009054906101000a900460ff1680156111135750600560019054906101000a900460ff165b156111215761112061172d565b5b50505050505050565b60035481565b600560019054906101000a900460ff1681565b6007805461115090612b68565b80601f016020809104026020016040519081016040528092919081815260200182805461117c90612b68565b80156111c95780601f1061119e576101008083540402835291602001916111c9565b820191906000526020600020905b8154815290600101906020018083116111ac57829003601f168201915b505050505081565b60003411611214576040517f08c379a000000000000000000000000000000000000000000000000000000000815260040161120b906128d7565b60405180910390fd5b600073ffffffffffffffffffffffffffffffffffffffff1660008054906101000a900473ffffffffffffffffffffffffffffffffffffffff1673ffffffffffffffffffffffffffffffffffffffff16141561130a57336000806101000a81548173ffffffffffffffffffffffffffffffffffffffff021916908373ffffffffffffffffffffffffffffffffffffffff16021790555080600381905550346002819055503373ffffffffffffffffffffffffffffffffffffffff167fa563b85fc6323995d96ceafe952aabc2a413b957735468172e9e7019e5ce7cf2826040516112fd9190612796565b60405180910390a261150c565b600073ffffffffffffffffffffffffffffffffffffffff16600160009054906101000a900473ffffffffffffffffffffffffffffffffffffffff1673ffffffffffffffffffffffffffffffffffffffff161461139b576040517f08c379a000000000000000000000000000000000000000000000000000000000815260040161139290612937565b60405180910390fd5b60008054906101000a900473ffffffffffffffffffffffffffffffffffffffff1673ffffffffffffffffffffffffffffffffffffffff163373ffffffffffffffffffffffffffffffffffffffff16141561142a576040517f08c379a0000000000000000000000000000000000000000000000000000000008152600401611421906128b7565b60405180910390fd5b600254341461146e576040517f08c379a000000000000000000000000000000000000000000000000000000000815260040161146590612997565b60405180910390fd5b33600160006101000a81548173ffffffffffffffffffffffffffffffffffffffff021916908373ffffffffffffffffffffffffffffffffffffffff16021790555080600481905550426008819055503373ffffffffffffffffffffffffffffffffffffffff167fa563b85fc6323995d96ceafe952aabc2a413b957735468172e9e7019e5ce7cf2826040516115039190612796565b60405180910390a25b50565b60008054906101000a900473ffffffffffffffffffffffffffffffffffffffff1681565b600960159054906101000a900460ff1681565b600960019054906101000a900473ffffffffffffffffffffffffffffffffffffffff1681565b600a6020528060005260406000206000915090505481565b60045481565b60008060006101000a81548173ffffffffffffffffffffffffffffffffffffffff021916908373ffffffffffffffffffffffffffffffffffffffff1602179055506000600160006101000a81548173ffffffffffffffffffffffffffffffffffffffff021916908373ffffffffffffffffffffffffffffffffffffffff16021790555060006002819055506000801b6003819055506000801b6004819055506000600560006101000a81548160ff0219169083151502179055506000600560016101000a81548160ff0219169083151502179055506040518060200160405280600081525060069080519060200190611684929190612032565b5060405180602001604052806000815250600790805190602001906116aa929190612032565b5060006008819055506000600960006101000a81548160ff0219169083151502179055506000600960016101000a81548173ffffffffffffffffffffffffffffffffffffffff021916908373ffffffffffffffffffffffffffffffffffffffff1602179055506000600960156101000a81548160ff021916908315150217905550565b60076000815461173c90612b68565b8110611771577f4e487b7100000000000000000000000000000000000000000000000000000000600052603260045260246000fd5b8154600116156117905790600052602060002090602091828204019190065b9054901a7f0100000000000000000000000000000000000000000000000000000000000000027effffffffffffffffffffffffffffffffffffffffffffffffffffffffffffff19166006600081546117e790612b68565b811061181c577f4e487b7100000000000000000000000000000000000000000000000000000000600052603260045260246000fd5b81546001161561183b5790600052602060002090602091828204019190065b9054901a7f0100000000000000000000000000000000000000000000000000000000000000027effffffffffffffffffffffffffffffffffffffffffffffffffffffffffffff19161415611993576001600960156101000a81548160ff0219169083151502179055506001600960006101000a81548160ff021916908315150217905550600254600a60008060009054906101000a900473ffffffffffffffffffffffffffffffffffffffff1673ffffffffffffffffffffffffffffffffffffffff1673ffffffffffffffffffffffffffffffffffffffff16815260200190815260200160002081905550600254600a6000600160009054906101000a900473ffffffffffffffffffffffffffffffffffffffff1673ffffffffffffffffffffffffffffffffffffffff1673ffffffffffffffffffffffffffffffffffffffff16815260200190815260200160002081905550611faa565b60007f52000000000000000000000000000000000000000000000000000000000000006006600081546119c590612b68565b81106119fa577f4e487b7100000000000000000000000000000000000000000000000000000000600052603260045260246000fd5b815460011615611a195790600052602060002090602091828204019190065b9054901a7f0100000000000000000000000000000000000000000000000000000000000000027effffffffffffffffffffffffffffffffffffffffffffffffffffffffffffff1916148015611b3757507f5300000000000000000000000000000000000000000000000000000000000000600760008154611a9990612b68565b8110611ace577f4e487b7100000000000000000000000000000000000000000000000000000000600052603260045260246000fd5b815460011615611aed5790600052602060002090602091828204019190065b9054901a7f0100000000000000000000000000000000000000000000000000000000000000027effffffffffffffffffffffffffffffffffffffffffffffffffffffffffffff1916145b80611ce057507f5000000000000000000000000000000000000000000000000000000000000000600660008154611b6d90612b68565b8110611ba2577f4e487b7100000000000000000000000000000000000000000000000000000000600052603260045260246000fd5b815460011615611bc15790600052602060002090602091828204019190065b9054901a7f0100000000000000000000000000000000000000000000000000000000000000027effffffffffffffffffffffffffffffffffffffffffffffffffffffffffffff1916148015611cdf57507f5200000000000000000000000000000000000000000000000000000000000000600760008154611c4190612b68565b8110611c76577f4e487b7100000000000000000000000000000000000000000000000000000000600052603260045260246000fd5b815460011615611c955790600052602060002090602091828204019190065b9054901a7f0100000000000000000000000000000000000000000000000000000000000000027effffffffffffffffffffffffffffffffffffffffffffffffffffffffffffff1916145b5b80611e8957507f5300000000000000000000000000000000000000000000000000000000000000600660008154611d1690612b68565b8110611d4b577f4e487b7100000000000000000000000000000000000000000000000000000000600052603260045260246000fd5b815460011615611d6a5790600052602060002090602091828204019190065b9054901a7f0100000000000000000000000000000000000000000000000000000000000000027effffffffffffffffffffffffffffffffffffffffffffffffffffffffffffff1916148015611e8857507f5000000000000000000000000000000000000000000000000000000000000000600760008154611dea90612b68565b8110611e1f577f4e487b7100000000000000000000000000000000000000000000000000000000600052603260045260246000fd5b815460011615611e3e5790600052602060002090602091828204019190065b9054901a7f0100000000000000000000000000000000000000000000000000000000000000027effffffffffffffffffffffffffffffffffffffffffffffffffffffffffffff1916145b5b905080611eb857600160009054906101000a900473ffffffffffffffffffffffffffffffffffffffff16611eda565b60008054906101000a900473ffffffffffffffffffffffffffffffffffffffff165b600960016101000a81548173ffffffffffffffffffffffffffffffffffffffff021916908373ffffffffffffffffffffffffffffffffffffffff1602179055506001600960006101000a81548160ff02191690831515021790555060028054611f439190612a7a565b600a6000600960019054906101000a900473ffffffffffffffffffffffffffffffffffffffff1673ffffffffffffffffffffffffffffffffffffffff1673ffffffffffffffffffffffffffffffffffffffff16815260200190815260200160002081905550505b565b828054611fb890612b68565b90600052602060002090601f016020900481019282611fda5760008555612021565b82601f10611ff357803560ff1916838001178555612021565b82800160010185558215612021579182015b82811115612020578235825591602001919060010190612005565b5b50905061202e91906120b8565b5090565b82805461203e90612b68565b90600052602060002090601f01602090048101928261206057600085556120a7565b82601f1061207957805160ff19168380011785556120a7565b828001600101855582156120a7579182015b828111156120a657825182559160200191906001019061208b565b5b5090506120b491906120b8565b5090565b5b808211156120d15760008160009055506001016120b9565b5090565b6000813590506120e481612c09565b92915050565b6000813590506120f981612c20565b92915050565b60008083601f84011261211157600080fd5b8235905067ffffffffffffffff81111561212a57600080fd5b60208301915083600182028301111561214257600080fd5b9250929050565b60006020828403121561215b57600080fd5b6000612169848285016120d5565b91505092915050565b60006020828403121561218457600080fd5b6000612192848285016120ea565b91505092915050565b600080600080604085870312156121b157600080fd5b600085013567ffffffffffffffff8111156121cb57600080fd5b6121d7878288016120ff565b9450945050602085013567ffffffffffffffff8111156121f657600080fd5b612202878288016120ff565b925092505092959194509250565b61221981612ad4565b82525050565b61222881612ae6565b82525050565b61223781612af2565b82525050565b60006122498385612a08565b9350612256838584612b26565b61225f83612bf8565b840190509392505050565b60006122768385612a19565b9350612283838584612b26565b82840190509392505050565b600061229a826129f2565b6122a48185612a08565b93506122b4818560208601612b35565b6122bd81612bf8565b840191505092915050565b60006122d5601883612a08565b91507f506c617965723120616c72656164792072657665616c656400000000000000006000830152602082019050919050565b6000612315601183612a08565b91507f4e6f742061207061727469636970616e740000000000000000000000000000006000830152602082019050919050565b6000612355602a83612a08565b91507f47616d65206e6f7420636f6d706c6574656420616e642074696d656f7574206e60008301527f6f742072656163686564000000000000000000000000000000000000000000006020830152604082019050919050565b60006123bb600f83612a08565b91507f5472616e73666572206661696c656400000000000000000000000000000000006000830152602082019050919050565b60006123fb601483612a08565b91507f4e6f2066756e647320746f2077697468647261770000000000000000000000006000830152602082019050919050565b600061243b601783612a08565b91507f4d6f7665206d75737420626520522c20502c206f7220530000000000000000006000830152602082019050919050565b600061247b601c83612a08565b91507f43616e6e6f7420706c617920616761696e737420796f757273656c66000000006000830152602082019050919050565b60006124bb601683612a08565b91507f5374616b65206d757374206265206e6f6e2d7a65726f000000000000000000006000830152602082019050919050565b60006124fb602883612a08565b91507f4e6f2072657665616c20627920616e7920706c617965723b2063616e6e6f742060008301527f77697468647261770000000000000000000000000000000000000000000000006020830152604082019050919050565b6000612561601a83612a08565b91507f496e76616c69642072657665616c20666f7220706c61796572310000000000006000830152602082019050919050565b60006125a1601c83612a08565b91507f47616d6520616c7265616479206861732074776f20706c6179657273000000006000830152602082019050919050565b60006125e1601a83612a08565b91507f496e76616c69642072657665616c20666f7220706c61796572320000000000006000830152602082019050919050565b6000612621601883612a08565b91507f506c617965723220616c72656164792072657665616c656400000000000000006000830152602082019050919050565b6000612661602983612a08565b91507f5374616b65206d757374206d617463682074686520666972737420706c61796560008301527f722773207374616b6500000000000000000000000000000000000000000000006020830152604082019050919050565b60006126c76000836129fd565b9150600082019050919050565b60006126e1601d83612a08565b91507f496e76616c6964206d6f76652e20557365202752272c2750272c2753270000006000830152602082019050919050565b61271d81612b1c565b82525050565b600061273082868861226a565b915061273d82848661226a565b915081905095945050505050565b6000612756826126ba565b9150819050919050565b60006020820190506127756000830184612210565b92915050565b6000602082019050612790600083018461221f565b92915050565b60006020820190506127ab600083018461222e565b92915050565b600060208201905081810360008301526127cc81848661223d565b90509392505050565b600060208201905081810360008301526127ef818461228f565b905092915050565b60006020820190508181036000830152612810816122c8565b9050919050565b6000602082019050818103600083015261283081612308565b9050919050565b6000602082019050818103600083015261285081612348565b9050919050565b60006020820190508181036000830152612870816123ae565b9050919050565b60006020820190508181036000830152612890816123ee565b9050919050565b600060208201905081810360008301526128b08161242e565b9050919050565b600060208201905081810360008301526128d08161246e565b9050919050565b600060208201905081810360008301526128f0816124ae565b9050919050565b60006020820190508181036000830152612910816124ee565b9050919050565b6000602082019050818103600083015261293081612554565b9050919050565b6000602082019050818103600083015261295081612594565b9050919050565b60006020820190508181036000830152612970816125d4565b9050919050565b6000602082019050818103600083015261299081612614565b9050919050565b600060208201905081810360008301526129b081612654565b9050919050565b600060208201905081810360008301526129d0816126d4565b9050919050565b60006020820190506129ec6000830184612714565b92915050565b600081519050919050565b600081905092915050565b600082825260208201905092915050565b600081905092915050565b6000612a2f82612b1c565b9150612a3a83612b1c565b9250827fffffffffffffffffffffffffffffffffffffffffffffffffffffffffffffffff03821115612a6f57612a6e612b9a565b5b828201905092915050565b6000612a8582612b1c565b9150612a9083612b1c565b9250817fffffffffffffffffffffffffffffffffffffffffffffffffffffffffffffffff0483118215151615612ac957612ac8612b9a565b5b828202905092915050565b6000612adf82612afc565b9050919050565b60008115159050919050565b6000819050919050565b600073ffffffffffffffffffffffffffffffffffffffff82169050919050565b6000819050919050565b82818337600083830152505050565b60005b83811015612b53578082015181840152602081019050612b38565b83811115612b62576000848401525b50505050565b60006002820490506001821680612b8057607f821691505b60208210811415612b9457612b93612bc9565b5b50919050565b7f4e487b7100000000000000000000000000000000000000000000000000000000600052601160045260246000fd5b7f4e487b7100000000000000000000000000000000000000000000000000000000600052602260045260246000fd5b6000601f19601f8301169050919050565b612c1281612ad4565b8114612c1d57600080fd5b50565b612c2981612af2565b8114612c3457600080fd5b5056fea2646970667358221220b946aa1c54f73d73c852353f9bbb582a24c8b77ea290655f0e8376edb37cec8964736f6c63430008000033",
    "linkReferences": {},
    "deployedLinkReferences": {}
}